{
  "contractName": "Certificator",
  "abi": [
    {
      "anonymous": false,
      "inputs": [
        {
          "indexed": false,
          "internalType": "address",
          "name": "_userAddr",
          "type": "address"
        },
        {
          "indexed": false,
          "internalType": "string",
          "name": "_user",
          "type": "string"
        },
        {
          "indexed": false,
          "internalType": "string",
          "name": "_userHash",
          "type": "string"
        },
        {
          "indexed": false,
          "internalType": "string",
          "name": "_id",
          "type": "string"
        },
        {
          "indexed": false,
          "internalType": "string",
          "name": "_title",
          "type": "string"
        },
        {
          "indexed": false,
          "internalType": "string",
          "name": "_dataHash",
          "type": "string"
        },
        {
          "indexed": false,
          "internalType": "uint256",
          "name": "_version",
          "type": "uint256"
        }
      ],
      "name": "CertificationCreated",
      "type": "event"
    },
    {
      "anonymous": false,
      "inputs": [
        {
          "indexed": true,
          "internalType": "bytes32",
          "name": "role",
          "type": "bytes32"
        },
        {
          "indexed": true,
          "internalType": "bytes32",
          "name": "previousAdminRole",
          "type": "bytes32"
        },
        {
          "indexed": true,
          "internalType": "bytes32",
          "name": "newAdminRole",
          "type": "bytes32"
        }
      ],
      "name": "RoleAdminChanged",
      "type": "event"
    },
    {
      "anonymous": false,
      "inputs": [
        {
          "indexed": true,
          "internalType": "bytes32",
          "name": "role",
          "type": "bytes32"
        },
        {
          "indexed": true,
          "internalType": "address",
          "name": "account",
          "type": "address"
        },
        {
          "indexed": true,
          "internalType": "address",
          "name": "sender",
          "type": "address"
        }
      ],
      "name": "RoleGranted",
      "type": "event"
    },
    {
      "anonymous": false,
      "inputs": [
        {
          "indexed": true,
          "internalType": "bytes32",
          "name": "role",
          "type": "bytes32"
        },
        {
          "indexed": true,
          "internalType": "address",
          "name": "account",
          "type": "address"
        },
        {
          "indexed": true,
          "internalType": "address",
          "name": "sender",
          "type": "address"
        }
      ],
      "name": "RoleRevoked",
      "type": "event"
    },
    {
      "inputs": [],
      "name": "DEFAULT_ADMIN_ROLE",
      "outputs": [
        {
          "internalType": "bytes32",
          "name": "",
          "type": "bytes32"
        }
      ],
      "stateMutability": "view",
      "type": "function",
      "constant": true
    },
    {
      "inputs": [],
      "name": "USER_ROLE",
      "outputs": [
        {
          "internalType": "bytes32",
          "name": "",
          "type": "bytes32"
        }
      ],
      "stateMutability": "view",
      "type": "function",
      "constant": true
    },
    {
      "inputs": [
        {
          "internalType": "string",
          "name": "",
          "type": "string"
        }
      ],
      "name": "certifications",
      "outputs": [
        {
          "internalType": "uint256",
          "name": "",
          "type": "uint256"
        }
      ],
      "stateMutability": "view",
      "type": "function",
      "constant": true
    },
    {
      "inputs": [
        {
          "internalType": "bytes32",
          "name": "role",
          "type": "bytes32"
        }
      ],
      "name": "getRoleAdmin",
      "outputs": [
        {
          "internalType": "bytes32",
          "name": "",
          "type": "bytes32"
        }
      ],
      "stateMutability": "view",
      "type": "function",
      "constant": true
    },
    {
      "inputs": [
        {
          "internalType": "bytes32",
          "name": "role",
          "type": "bytes32"
        },
        {
          "internalType": "uint256",
          "name": "index",
          "type": "uint256"
        }
      ],
      "name": "getRoleMember",
      "outputs": [
        {
          "internalType": "address",
          "name": "",
          "type": "address"
        }
      ],
      "stateMutability": "view",
      "type": "function",
      "constant": true
    },
    {
      "inputs": [
        {
          "internalType": "bytes32",
          "name": "role",
          "type": "bytes32"
        }
      ],
      "name": "getRoleMemberCount",
      "outputs": [
        {
          "internalType": "uint256",
          "name": "",
          "type": "uint256"
        }
      ],
      "stateMutability": "view",
      "type": "function",
      "constant": true
    },
    {
      "inputs": [
        {
          "internalType": "bytes32",
          "name": "role",
          "type": "bytes32"
        },
        {
          "internalType": "address",
          "name": "account",
          "type": "address"
        }
      ],
      "name": "grantRole",
      "outputs": [],
      "stateMutability": "nonpayable",
      "type": "function"
    },
    {
      "inputs": [
        {
          "internalType": "bytes32",
          "name": "role",
          "type": "bytes32"
        },
        {
          "internalType": "address",
          "name": "account",
          "type": "address"
        }
      ],
      "name": "hasRole",
      "outputs": [
        {
          "internalType": "bool",
          "name": "",
          "type": "bool"
        }
      ],
      "stateMutability": "view",
      "type": "function",
      "constant": true
    },
    {
      "inputs": [
        {
          "internalType": "bytes32",
          "name": "role",
          "type": "bytes32"
        },
        {
          "internalType": "address",
          "name": "account",
          "type": "address"
        }
      ],
      "name": "renounceRole",
      "outputs": [],
      "stateMutability": "nonpayable",
      "type": "function"
    },
    {
      "inputs": [
        {
          "internalType": "bytes32",
          "name": "role",
          "type": "bytes32"
        },
        {
          "internalType": "address",
          "name": "account",
          "type": "address"
        }
      ],
      "name": "revokeRole",
      "outputs": [],
      "stateMutability": "nonpayable",
      "type": "function"
    },
    {
      "inputs": [
        {
          "internalType": "address",
          "name": "_user",
          "type": "address"
        },
        {
          "internalType": "address",
          "name": "_parent",
          "type": "address"
        }
      ],
      "name": "init",
      "outputs": [],
      "stateMutability": "nonpayable",
      "type": "function"
    },
    {
      "inputs": [
        {
          "internalType": "string",
          "name": "_user",
          "type": "string"
        },
        {
          "internalType": "string",
          "name": "_userHash",
          "type": "string"
        },
        {
          "internalType": "string",
          "name": "_id",
          "type": "string"
        },
        {
          "internalType": "string",
          "name": "_title",
          "type": "string"
        },
        {
          "internalType": "string",
          "name": "_dataHash",
          "type": "string"
        }
      ],
      "name": "certificate",
      "outputs": [],
      "stateMutability": "nonpayable",
      "type": "function"
    }
  ],
  "bytecode": "0x608060405234801561001057600080fd5b506112f7806100206000396000f3fe608060405234801561001057600080fd5b50600436106100b45760003560e01c806391d148541161007157806391d148541461018b578063a217fddf146101bb578063ca15c873146101d9578063d547741f14610209578063f09a401614610225578063fc6b38ad14610241576100b4565b806313119161146100b9578063248a9ca3146100d75780632f2ff15d1461010757806336568abe1461012357806363b6c86a1461013f5780639010d07c1461015b575b600080fd5b6100c1610271565b6040516100ce9190611077565b60405180910390f35b6100f160048036038101906100ec9190610b23565b610295565b6040516100fe9190611077565b60405180910390f35b610121600480360381019061011c9190610b4c565b6102b4565b005b61013d60048036038101906101389190610b4c565b610327565b005b61015960048036038101906101549190610c05565b6103aa565b005b61017560048036038101906101709190610b88565b6104cb565b6040516101829190610faf565b60405180910390f35b6101a560048036038101906101a09190610b4c565b6104fc565b6040516101b2919061105c565b60405180910390f35b6101c361052d565b6040516101d09190611077565b60405180910390f35b6101f360048036038101906101ee9190610b23565b610534565b6040516102009190611132565b60405180910390f35b610223600480360381019061021e9190610b4c565b61055a565b005b61023f600480360381019061023a9190610ae7565b6105cd565b005b61025b60048036038101906102569190610bc4565b610632565b6040516102689190611132565b60405180910390f35b7f14823911f2da1b49f045a0929a60b8c1f2a7fc8c06c7284ca3e8ab4e193a08c881565b6000806000838152602001908152602001600020600201549050919050565b6102da600080848152602001908152602001600020600201546102d5610660565b6104fc565b610319576040517f08c379a0000000000000000000000000000000000000000000000000000000008152600401610310906110b2565b60405180910390fd5b6103238282610668565b5050565b61032f610660565b73ffffffffffffffffffffffffffffffffffffffff168173ffffffffffffffffffffffffffffffffffffffff161461039c576040517f08c379a000000000000000000000000000000000000000000000000000000000815260040161039390611112565b60405180910390fd5b6103a682826106fb565b5050565b6103d47f14823911f2da1b49f045a0929a60b8c1f2a7fc8c06c7284ca3e8ab4e193a08c8336104fc565b610413576040517f08c379a000000000000000000000000000000000000000000000000000000000815260040161040a906110f2565b60405180910390fd5b600180846040516104249190610f98565b908152602001604051809103902054016001846040516104449190610f98565b9081526020016040518091039020819055507f169dcfb9dbf5e2a721163598f2446d36dbb69bb4561b1605c422d0200d18fc4a6104856000801b60006104cb565b868686868660018a60405161049a9190610f98565b9081526020016040518091039020546040516104bc9796959493929190610fca565b60405180910390a15050505050565b60006104f48260008086815260200190815260200160002060000161078e90919063ffffffff16565b905092915050565b6000610525826000808681526020019081526020016000206000016107a890919063ffffffff16565b905092915050565b6000801b81565b60006105536000808481526020019081526020016000206000016107d8565b9050919050565b6105806000808481526020019081526020016000206002015461057b610660565b6104fc565b6105bf576040517f08c379a00000000000000000000000000000000000000000000000000000000081526004016105b6906110d2565b60405180910390fd5b6105c982826106fb565b5050565b6105da6000801b836107ed565b6106047f14823911f2da1b49f045a0929a60b8c1f2a7fc8c06c7284ca3e8ab4e193a08c8836107ed565b61062e7f14823911f2da1b49f045a0929a60b8c1f2a7fc8c06c7284ca3e8ab4e193a08c8826107ed565b5050565b6001818051602081018201805184825260208301602085012081835280955050505050506000915090505481565b600033905090565b61068f816000808581526020019081526020016000206000016107fb90919063ffffffff16565b156106f75761069c610660565b73ffffffffffffffffffffffffffffffffffffffff168173ffffffffffffffffffffffffffffffffffffffff16837f2f8788117e7eff1d82e926ec794901d17c78024a50270940304540a733656f0d60405160405180910390a45b5050565b6107228160008085815260200190815260200160002060000161082b90919063ffffffff16565b1561078a5761072f610660565b73ffffffffffffffffffffffffffffffffffffffff168173ffffffffffffffffffffffffffffffffffffffff16837ff6391f5c32d9c69d2a47ea670b442974b53935d1edc7fd64eb21e047a839171b60405160405180910390a45b5050565b600061079d836000018361085b565b60001c905092915050565b60006107d0836000018373ffffffffffffffffffffffffffffffffffffffff1660001b6108c8565b905092915050565b60006107e6826000016108eb565b9050919050565b6107f78282610668565b5050565b6000610823836000018373ffffffffffffffffffffffffffffffffffffffff1660001b6108fc565b905092915050565b6000610853836000018373ffffffffffffffffffffffffffffffffffffffff1660001b61096c565b905092915050565b6000818360000180549050116108a6576040517f08c379a000000000000000000000000000000000000000000000000000000000815260040161089d90611092565b60405180910390fd5b8260000182815481106108b557fe5b9060005260206000200154905092915050565b600080836001016000848152602001908152602001600020541415905092915050565b600081600001805490509050919050565b600061090883836108c8565b610961578260000182908060018154018082558091505060019003906000526020600020016000909190919091505582600001805490508360010160008481526020019081526020016000208190555060019050610966565b600090505b92915050565b60008083600101600084815260200190815260200160002054905060008114610a4857600060018203905060006001866000018054905003905060008660000182815481106109b757fe5b90600052602060002001549050808760000184815481106109d457fe5b9060005260206000200181905550600183018760010160008381526020019081526020016000208190555086600001805480610a0c57fe5b60019003818190600052602060002001600090559055866001016000878152602001908152602001600020600090556001945050505050610a4e565b60009150505b92915050565b600081359050610a638161127c565b92915050565b600081359050610a7881611293565b92915050565b600082601f830112610a8f57600080fd5b8135610aa2610a9d8261117e565b61114d565b91508082526020830160208301858383011115610abe57600080fd5b610ac9838284611227565b50505092915050565b600081359050610ae1816112aa565b92915050565b60008060408385031215610afa57600080fd5b6000610b0885828601610a54565b9250506020610b1985828601610a54565b9150509250929050565b600060208284031215610b3557600080fd5b6000610b4384828501610a69565b91505092915050565b60008060408385031215610b5f57600080fd5b6000610b6d85828601610a69565b9250506020610b7e85828601610a54565b9150509250929050565b60008060408385031215610b9b57600080fd5b6000610ba985828601610a69565b9250506020610bba85828601610ad2565b9150509250929050565b600060208284031215610bd657600080fd5b600082013567ffffffffffffffff811115610bf057600080fd5b610bfc84828501610a7e565b91505092915050565b600080600080600060a08688031215610c1d57600080fd5b600086013567ffffffffffffffff811115610c3757600080fd5b610c4388828901610a7e565b955050602086013567ffffffffffffffff811115610c6057600080fd5b610c6c88828901610a7e565b945050604086013567ffffffffffffffff811115610c8957600080fd5b610c9588828901610a7e565b935050606086013567ffffffffffffffff811115610cb257600080fd5b610cbe88828901610a7e565b925050608086013567ffffffffffffffff811115610cdb57600080fd5b610ce788828901610a7e565b9150509295509295909350565b610cfd816111d5565b82525050565b610d0c816111e7565b82525050565b610d1b816111f3565b82525050565b6000610d2c826111ae565b610d3681856111b9565b9350610d46818560208601611236565b610d4f8161126b565b840191505092915050565b6000610d65826111ae565b610d6f81856111ca565b9350610d7f818560208601611236565b80840191505092915050565b6000610d986022836111b9565b91507f456e756d657261626c655365743a20696e646578206f7574206f6620626f756e60008301527f64730000000000000000000000000000000000000000000000000000000000006020830152604082019050919050565b6000610dfe602f836111b9565b91507f416363657373436f6e74726f6c3a2073656e646572206d75737420626520616e60008301527f2061646d696e20746f206772616e7400000000000000000000000000000000006020830152604082019050919050565b6000610e646030836111b9565b91507f416363657373436f6e74726f6c3a2073656e646572206d75737420626520616e60008301527f2061646d696e20746f207265766f6b65000000000000000000000000000000006020830152604082019050919050565b6000610eca6024836111b9565b91507f756e617574686f72697a65643a20796f75206e65656420746f20626520616e2060008301527f75736572000000000000000000000000000000000000000000000000000000006020830152604082019050919050565b6000610f30602f836111b9565b91507f416363657373436f6e74726f6c3a2063616e206f6e6c792072656e6f756e636560008301527f20726f6c657320666f722073656c6600000000000000000000000000000000006020830152604082019050919050565b610f928161121d565b82525050565b6000610fa48284610d5a565b915081905092915050565b6000602082019050610fc46000830184610cf4565b92915050565b600060e082019050610fdf600083018a610cf4565b8181036020830152610ff18189610d21565b905081810360408301526110058188610d21565b905081810360608301526110198187610d21565b9050818103608083015261102d8186610d21565b905081810360a08301526110418185610d21565b905061105060c0830184610f89565b98975050505050505050565b60006020820190506110716000830184610d03565b92915050565b600060208201905061108c6000830184610d12565b92915050565b600060208201905081810360008301526110ab81610d8b565b9050919050565b600060208201905081810360008301526110cb81610df1565b9050919050565b600060208201905081810360008301526110eb81610e57565b9050919050565b6000602082019050818103600083015261110b81610ebd565b9050919050565b6000602082019050818103600083015261112b81610f23565b9050919050565b60006020820190506111476000830184610f89565b92915050565b6000604051905081810181811067ffffffffffffffff8211171561117457611173611269565b5b8060405250919050565b600067ffffffffffffffff82111561119957611198611269565b5b601f19601f8301169050602081019050919050565b600081519050919050565b600082825260208201905092915050565b600081905092915050565b60006111e0826111fd565b9050919050565b60008115159050919050565b6000819050919050565b600073ffffffffffffffffffffffffffffffffffffffff82169050919050565b6000819050919050565b82818337600083830152505050565b60005b83811015611254578082015181840152602081019050611239565b83811115611263576000848401525b50505050565bfe5b6000601f19601f8301169050919050565b611285816111d5565b811461129057600080fd5b50565b61129c816111f3565b81146112a757600080fd5b50565b6112b38161121d565b81146112be57600080fd5b5056fea26469706673582212208123680c48741e35a764ef8c7862cca8dcdc2d9d4cb596312fc3773c93baa1cb64736f6c63430007030033",
  "immutableReferences": {},
  "source": "// SPDX-License-Identifier: UNLICENSED\npragma solidity ^0.7.3;\npragma experimental ABIEncoderV2;\n\n//import \"hardhat/console.sol\";\nimport \"@openzeppelin/contracts/access/AccessControl.sol\";\n\ncontract Certificator is AccessControl { // TODO updatable\n\n    event CertificationCreated(address _userAddr, string _user, string _userHash,  string _id, string _title, string _dataHash, uint _version);\n\n    mapping(string => uint) public certifications;\n\n    bytes32 public constant USER_ROLE = keccak256(\"USER_ROLE\");\n\n    modifier onlyUser() {\n        require(hasRole(USER_ROLE, msg.sender), \"unauthorized: you need to be an user\");\n        _;\n    }\n\n    function init(address _user, address _parent) external {\n        _setupRole(DEFAULT_ADMIN_ROLE, _user);\n        _setupRole(USER_ROLE, _user);\n        _setupRole(USER_ROLE, _parent);\n    }\n\n    function certificate(\n        string memory _user,\n        string memory _userHash,\n        string memory _id,\n        string memory _title,\n        string memory _dataHash\n    ) external onlyUser {\n        certifications[_id] = certifications[_id] + 1;\n\n        emit CertificationCreated(getRoleMember(DEFAULT_ADMIN_ROLE, 0), _user, _userHash, _id, _title, _dataHash, certifications[_id]);\n    }\n}",
  "sourcePath": "/home/aleix.vila/Eurecat/projects/icomunity/multichainUseCase/api-swagger/contracts/Certificator.sol",
  "compiler": {
    "name": "solc",
    "version": "0.7.3+commit.9bfce1f6.Emscripten.clang"
  },
  "schemaVersion": "3.3.4",
  "updatedAt": "2021-03-16T16:10:42.441Z",
  "networkType": "ethereum",
  "devdoc": {
    "kind": "dev",
    "methods": {
      "getRoleAdmin(bytes32)": {
        "details": "Returns the admin role that controls `role`. See {grantRole} and {revokeRole}. To change a role's admin, use {_setRoleAdmin}."
      },
      "getRoleMember(bytes32,uint256)": {
        "details": "Returns one of the accounts that have `role`. `index` must be a value between 0 and {getRoleMemberCount}, non-inclusive. Role bearers are not sorted in any particular way, and their ordering may change at any point. WARNING: When using {getRoleMember} and {getRoleMemberCount}, make sure you perform all queries on the same block. See the following https://forum.openzeppelin.com/t/iterating-over-elements-on-enumerableset-in-openzeppelin-contracts/2296[forum post] for more information."
      },
      "getRoleMemberCount(bytes32)": {
        "details": "Returns the number of accounts that have `role`. Can be used together with {getRoleMember} to enumerate all bearers of a role."
      },
      "grantRole(bytes32,address)": {
        "details": "Grants `role` to `account`. If `account` had not been already granted `role`, emits a {RoleGranted} event. Requirements: - the caller must have ``role``'s admin role."
      },
      "hasRole(bytes32,address)": {
        "details": "Returns `true` if `account` has been granted `role`."
      },
      "renounceRole(bytes32,address)": {
        "details": "Revokes `role` from the calling account. Roles are often managed via {grantRole} and {revokeRole}: this function's purpose is to provide a mechanism for accounts to lose their privileges if they are compromised (such as when a trusted device is misplaced). If the calling account had been granted `role`, emits a {RoleRevoked} event. Requirements: - the caller must be `account`."
      },
      "revokeRole(bytes32,address)": {
        "details": "Revokes `role` from `account`. If `account` had been granted `role`, emits a {RoleRevoked} event. Requirements: - the caller must have ``role``'s admin role."
      }
    },
    "version": 1
  },
  "userdoc": {
    "kind": "user",
    "methods": {},
    "version": 1
  }
}